:0B012F0002090000010800C101C1002E
:0D01220043B20853B1F753CAEF53C9EF229F
:10010A00538E7F5389F0438901758AE0758CB1C299
:08011A008DD28CD2A9D2AF22D4
:03000B0002009A56
:10009A00C0E0C0D075D000C007758AE0758CB1A2E7
:1000AA00CC9200A200E433FF650860068F08D201F3
:1000BA00801F300122050AE50A70020509C394B8B7
:1000CA00E509940B4011200004D2B38002C2B3C2E6
:0E00DA0001750900750A00D007D0D0D0E032C1
:1000E80012012212010AC2B3A2CC9200A200E43388
:1000F800F508200004D2018002C201E4F509F50ADE
:0201080080FE77
:0300000002000EED
:0C000E00787FE4F6D8FD758120020055D3
:10001A000200E8E493A3F8E493A34003F68001F214
:10002A0008DFF48029E493A3F85407240CC8C333E7
:10003A00C4540F4420C8834004F456800146F6DFB6
:10004A00E4800B010204081020408090012FE47E16
:10005A00019360BCA3FF543F30E509541FFEE493AB
:10006A00A360010ECF54C025E060A840B8E493A372
:10007A00FAE493A3F8E493A3C8C582C8CAC583CA9D
:10008A00F0A3C8C582C8CAC583CADFE9DEE780BE55
:01013A0000C4
:00000001FF
